:020000040800F2
:100000000000022081200008ED1F0008F51F0008F5
:10001000FD1F0008052000080D200008000000005A
:100020000000000000000000000000001520000893
:100030002320000800000000312000083F200008B5
:10004000D1200008D1200008D1200008D1200008CC
:10005000D1200008D1200008D1200008D1200008BC
:10006000D1200008D1200008D1200008D1200008AC
:10007000D1200008D1200008D1200008D12000089C
:10008000D1200008D1200008D12000080000000085
:10009000000000000000000000000000D120000867
:1000A000D1200008D1200008D1200008D12000086C
:1000B000D1200008D1200008D1200008D12000085C
:1000C000D1200008D1200008D1200008D12000084C
:1000D000D1200008D1200008D12000080000000035
:1000E0004B200008D1200008D120000800000000AB
:1000F000000000000000000000000000D120000807
:1001000000000000D1200008D1200008D120000804
:1001100000000000000000000000000000000000DF
:10012000D1200008D1200008D1200008D1200008EB
:10013000D1200008000000000000000000000000C6
:10014000000000000000000000000000D1200008B6
:10015000D1200008D1200008D1200008D1200008BB
:10016000D1200008D120000800000000000000009D
:10017000000000000000000000000000000000007F
:1001800000000000D1200008000000000000000076
:08019000D1200008D120000875
:1001980010B5054C237833B9044B13B10448AFF3B9
:1001A80000800123237010BD7000002000000000B3
:1001B800F859000808B5034B1BB103490348AFF3CE
:1001C800008008BD0000000074000020F8590008F5
:1001D80081F0004102E000BF83F0004330B54FEAF0
:1001E80041044FEA430594EA050F08BF90EA020F5D
:1001F8001FBF54EA000C55EA020C7FEA645C7FEAF0
:10020800655C00F0E2804FEA5454D4EB5555B8BF12
:100218006D420CDD2C4480EA020281EA030382EA83
:10022800000083EA010180EA020281EA0303362D15
:1002380088BF30BD11F0004F4FEA01314FF4801CE8
:100248004CEA113102D0404261EB410113F0004FFA
:100258004FEA03334CEA133302D0524263EB4303B1
:1002680094EA050F00F0A780A4F10104D5F1200E4F
:100278000DDB02FA0EFC22FA05F2801841F10001AA
:1002880003FA0EF2801843FA05F359410EE0A5F17E
:1002980020050EF1200E012A03FA0EFC28BF4CF0AF
:1002A800020C43FA05F3C01851EBE37101F0004565
:1002B80007D54FF0000EDCF1000C7EEB00006EEB72
:1002C8000101B1F5801F1BD3B1F5001F0CD34908FC
:1002D8005FEA30004FEA3C0C04F101044FEA445253
:1002E80012F5800F80F09A80BCF1004F08BF5FEADA
:1002F800500C50F1000041EB045141EA050130BDBA
:100308005FEA4C0C404141EB0101013C28BFB1F5CB
:10031800801FE9D291F0000F04BF01460020B1FA16
:1003280081F308BF2033A3F10B03B3F120020CDAE9
:100338000C3208DD02F1140CC2F10C0201FA0CF0C7
:1003480021FA02F10CE002F11402D8BFC2F1200C2C
:1003580001FA02F120FA0CFCDCBF41EA0C019040E2
:10036800E41AA2BF01EB0451294330BD6FEA04042B
:100378001F3C1CDA0C340EDC04F11404C4F1200216
:1003880020FA04F001FA02F340EA030021FA04F328
:1003980045EA030130BDC4F10C04C4F1200220FA7F
:1003A80002F001FA04F340EA0300294630BD21FABD
:1003B80004F0294630BD94F0000F83F4801306BF83
:1003C80081F480110134013D4EE77FEA645C18BF77
:1003D8007FEA655C29D094EA050F08BF90EA020F0E
:1003E80005D054EA000C04BF1946104630BD91EA06
:1003F800030F1EBF0021002030BD5FEA545C05D109
:100408004000494128BF41F0004130BD14F5800447
:100418003CBF01F5801130BD01F0004545F0FE41BB
:1004280041F470014FF0000030BD7FEA645C1ABFF0
:10043800194610467FEA655C1CBF0B46024650EA27
:10044800013406BF52EA033591EA030F41F4002153
:1004580030BD00BF90F0000F04BF0021704730B5D9
:100468004FF4806404F132044FF000054FF00001AE
:1004780050E700BF90F0000F04BF0021704730B56F
:100488004FF4806404F1320410F0004548BF404244
:100498004FF000013EE700BF42004FEAE2014FEA99
:1004A80031014FEA02701FBF12F07F4393F07F4F74
:1004B80081F06051704732F07F4208BF704793F077
:1004C8007F4F04BF41F40021704730B54FF460748A
:1004D80001F0004521F000411CE700BF50EA01028D
:1004E80008BF704730B54FF000050AE050EA010236
:1004F80008BF704730B511F0004502D5404261EBA6
:1005080041014FF4806404F132045FEA915C3FF4E6
:10051800D8AE4FF003025FEADC0C18BF03325FEA83
:10052800DC0C18BF033202EBDC02C2F1200300FA34
:1005380003FC20FA02F001FA03FE40EA0E0021FA59
:1005480002F11444BDE600BF70B54FF0FF0C4CF447
:10055800E06C1CEA11541DBF1CEA135594EA0C0FF9
:1005680095EA0C0F00F0DEF82C4481EA030621EA34
:100578004C5123EA4C5350EA013518BF52EA03356F
:1005880041F4801143F4801338D0A0FB02CE4FF021
:100598000005E1FB02E506F00042E0FB03E54FF051
:1005A8000006E1FB03569CF0000F18BF4EF0010E49
:1005B800A4F1FF04B6F5007F64F5407404D25FEA45
:1005C8004E0E6D4146EB060642EAC62141EA5551F8
:1005D8004FEAC52040EA5E504FEACE2EB4F1FD0C3A
:1005E80088BFBCF5E06F1ED8BEF1004F08BF5FEAB8
:1005F800500E50F1000041EB045170BD06F000466A
:1006080046EA010140EA020081EA0301B4EB5C0416
:10061800C2BFD4EB0C0541EA045170BD41F480110E
:100628004FF0000E013C00F3AB8014F1360FDEBF33
:10063800002001F0004170BDC4F10004203C35DA0F
:100648000C341BDC04F11404C4F1200500FA05F392
:1006580020FA04F001FA05F240EA020001F0004233
:1006680021F0004110EBD37021FA04F642EB0601A9
:100678005EEA430E08BF20EAD37070BDC4F10C04D3
:10068800C4F1200500FA04F320FA05F001FA04F297
:1006980040EA020001F0004110EBD37041F1000183
:1006A8005EEA430E08BF20EAD37070BDC4F120058E
:1006B80000FA05F24EEA020E20FA04F301FA05F2F6
:1006C80043EA020321FA04F001F0004121FA04F29E
:1006D80020EA020000EBD3705EEA430E08BF20EA6E
:1006E800D37070BD94F0000F0FD101F000464000A8
:1006F80041EB010111F4801F08BF013CF7D041EA2A
:10070800060195F0000F18BF704703F0004652002D
:1007180043EB030313F4801F08BF013DF7D043EAFE
:100728000603704794EA0C0F0CEA135518BF95EAB4
:100738000C0F0CD050EA410618BF52EA4306D1D13B
:1007480081EA030101F000414FF0000070BD50EA5A
:10075800410606BF1046194652EA430619D094EAE4
:100768000C0F02D150EA013613D195EA0C0F05D1CE
:1007780052EA03361CBF104619460AD181EA030122
:1007880001F0004141F0FE4141F470014FF00000DA
:1007980070BD41F0FE4141F4780170BD70B54FF075
:1007A800FF0C4CF4E06C1CEA11541DBF1CEA1355F5
:1007B80094EA0C0F95EA0C0F00F0A7F8A4EB0504D7
:1007C80081EA030E52EA03354FEA013100F08880CE
:1007D8004FEA03334FF0805545EA131343EA126397
:1007E8004FEA022245EA111545EA10654FEA00264C
:1007F8000EF000419D4208BF964244F1FD0404F505
:10080800407402D25B084FEA3202B61A65EB030560
:100818005B084FEA32024FF480104FF4002CB6EB1D
:10082800020E75EB030E22BFB61A754640EA0C009D
:100838005B084FEA3202B6EB020E75EB030E22BFDD
:10084800B61A754640EA5C005B084FEA3202B6EB1E
:10085800020E75EB030E22BFB61A754640EA9C00DD
:100868005B084FEA3202B6EB020E75EB030E22BFAD
:10087800B61A754640EADC0055EA060E18D04FEA6B
:10088800051545EA16754FEA06164FEAC30343EA0B
:1008980052734FEAC2025FEA1C1CC0D111F4801FD8
:1008A8000BD141EA00014FF000004FF0004CB6E7D1
:1008B80011F4801F04BF01430020B4F1FD0C88BF70
:1008C800BCF5E06F3FF6AFAEB5EB030C04BFB6EB7B
:1008D800020C5FEA500C50F1000041EB045170BD6E
:1008E8000EF0004E4EEA113114EB5C04C2BFD4EB9B
:1008F8000C0541EA045170BD41F480114FF0000E1F
:10090800013C90E645EA060E8DE60CEA135594EA9A
:100918000C0F08BF95EA0C0F3FF43BAF94EA0C0F9D
:100928000AD150EA01347FF434AF95EA0C0F7FF412
:1009380025AF104619462CE795EA0C0F06D152EA66
:1009480003353FF4FDAE1046194622E750EA41064A
:1009580018BF52EA43067FF4C5AE50EA41047FF45B
:100968000DAF52EA43057FF4EBAE12E74FF0FF3CC0
:1009780006E000BF4FF0010C02E000BF4FF0010C91
:100988004DF804CD4FEA410C7FEA6C5C4FEA430C0A
:1009980018BF7FEA6C5C1BD001B050EA410C0CBF59
:1009A80052EA430C91EA030F02BF90EA020F0020BB
:1009B800704710F1000F91EA030F58BF994208BF22
:1009C80090422CBFD8176FEAE37040F001007047DF
:1009D8004FEA410C7FEA6C5C02D150EA013C07D136
:1009E8004FEA430C7FEA6C5CD6D152EA033CD3D081
:1009F8005DF8040B704700BF8446104662468C467B
:100A08001946634600E000BF01B5FFF7B7FF0028AD
:100A180048BF10F1000F01BD4DF808EDFFF7F4FFD6
:100A28000CBF012000205DF808FB00BF4DF808ED61
:100A3800FFF7EAFF34BF012000205DF808FB00BF84
:100A48004DF808EDFFF7E0FF94BF012000205DF8A6
:100A580008FB00BF4DF808EDFFF7CEFF94BF01205B
:100A680000205DF808FB00BF4DF808EDFFF7C4FF54
:100A780034BF012000205DF808FB00BF4FEA410C9D
:100A88007FEA6C5C02D150EA013C0AD14FEA430C80
:100A98007FEA6C5C02D152EA033C02D14FF00000BD
:100AA80070474FF0010070474FEA4102B2F1E0434E
:100AB80024BFB3F5001CDCF1FE5C0DD901F0004C3D
:100AC8004FEAC0024CEA5070B2F1004F40EB83008D
:100AD80008BF20F00100704711F0804F21D113F1B9
:100AE8003872BCBF01F00040704741F480114FEAF2
:100AF8005252C2F11802C2F1200C10FA0CF320FA7B
:100B080002F018BF40F001004FEAC1234FEAD32397
:100B180003FA0CFC40EA0C0023FA02F34FEA430301
:100B2800CCE77FEA625307D150EA01331EBF4FF08A
:100B3800FE4040F44000704701F0004040F0FE40A5
:100B480040F40000704700BF53B94AB9002908BFF4
:100B580000281CBF4FF0FF314FF0FF3000F06AB99A
:100B6800ADF1080C6DE904CE00F006F8DDF804E0FC
:100B7800DDE9022304B070472DE9F047089D0C46D3
:100B8800002B4ED194468C458646B2FA82F262D941
:100B98004AB1C2F12003914020FA03F30CFA02FC97
:100BA800194300FA02FE4FEA1C471FFA8CF6B1FB04
:100BB800F7F44FEA1E4307FB141143EA014304FB11
:100BC80006F199420AD91CEB030304F1FF3080F0C7
:100BD8001281994240F20F81023C6344591A1FFA6C
:100BE8008EF3B1FBF7F007FB101143EA014300FB5A
:100BF80006F69E420AD91CEB030300F1FF3180F090
:100C0800FC809E4240F2F980634402389B1B40EA14
:100C1800044000211DB1D3400022C5E90032BDE8DF
:100C2800F0878B4205D90DB1C5E9000100210846BE
:100C3800F5E7B3FA83F1002946D1A34202D39042E3
:100C4800C0F0F080861A64EB03030120002DE6D083
:100C5800C5E90063E3E7002A40F09080A1EB0C04AB
:100C68004FEA1C481FFA8CF70121B4FBF8F64FEA4B
:100C78001E4308FB164443EA044307FB06F0984268
:100C880008D91CEB030306F1FF3402D2984200F2A4
:100C9800CD8026461C1A1FFA8EF3B4FBF8F008FB29
:100CA800104443EA044300FB07F79F4208D91CEBB2
:100CB800030300F1FF3402D29F4200F2B0802046C5
:100CC800DB1B40EA0640A5E7C1F120068B4022FA6B
:100CD80006F71F4320FA06FC04FA01F343EA0C0363
:100CE800F44000FA01F8380C4FEA1349B4FBF0FE5F
:100CF8001FFA87FC00FB1E4449EA04440EFB0CF96A
:100D0800A14502FA01F20AD93C190EF1FF3A80F026
:100D18008480A14540F28180AEF1020E3C44A4EBF0
:100D280009041FFA83F9B4FBF0F300FB134449EA02
:100D3800044403FB0CFCA44507D93C1903F1FF301C
:100D480067D2A44565D9023B3C4443EA0E40A0FB68
:100D58000293A4EB0C049C42CE469C4651D34ED041
:100D680055B1B8EB0E0364EB0C0404FA06F6CB405D
:100D78001E43CC40C5E90064002150E7C2F12003BE
:100D880020FA03F10CFA02FC24FA03F394400C4312
:100D98004FEA1C4800FA02FE1FFA8CF7B3FBF8F082
:100DA80008FB1031230C43EA014300FB07F1994289
:100DB80008D91CEB030300F1FF362CD299422AD93B
:100DC800023863445B1AA4B2B3FBF8F108FB113391
:100DD80044EA034401FB07F3A34208D91CEB0404CB
:100DE80001F1FF3613D2A34211D902396444E41A3F
:100DF80041EA004139E70446F0E6084606E7C845F7
:100E0800AED2B9EB020E63EB070C0138A8E7314606
:100E1800EDE7034699E73046D4E7D6467FE76344D3
:100E280002384DE70646234608460FE7023E63446C
:100E380030E700BF704700BF80B582B000AF786070
:100E48003960786801F01CFA0121786801F0FFFA2E
:100E58000346002B0AD1786801F084FB03469BB255
:100E6800A3F66E239BB21AB23B681A80786801F029
:100E7800BBFA00BF0837BD4680BD00000000000077
:100E8800B0B586B000AF786039604FF000037B6181
:100E98000023FB735DE04FF000033B610023BB734D
:100EA80035E0BB7B4FF4C87202FB03F37A68134446
:100EB800FA7B53F82220BB7B4FF4C87101FB03F384
:100EC80039680B44F97B53F82130D31A1846FFF7D9
:100ED800D1FA02460B469FED241B43EC102B03F07E
:100EE800FDFD55EC104B3869FFF7D6FA02460B4664
:100EF80020462946FFF772F902460B461046194666
:100F0800FFF7D2FD03463B61BB7B0133BB73BB7B61
:100F1800092BC6D93869FFF7BFFA02460B4643ECDE
:100F2800102B03F04BFE55EC104B7869FFF7B4FA21
:100F380002460B4620462946FFF750F902460B4663
:100F480010461946FFF7B0FD03467B61FB7B013372
:100F5800FB73FB7B632B9ED97B6907EE903AB0EE5F
:100F6800670A1837BD46B0BD000000000000004009
:100F7800B0B58EB000AFF860B9607A60FB687B638B
:100F880001F092FE00237B610023BB610223BB6258
:100F980006233B6201237B6207F1140207F1180361
:100FA8001146184601F0F2FF034687F82F3097F8EC
:100FB8002F30002B04D001F099FE97F82F3029E04C
:100FC80000233B631FE03B6B9B00BA6813441B681C
:100FD800DA171C46154622462B46796B022001F08B
:100FE8000FFE034687F82F3097F82F30002B04D0D8
:100FF80001F07CFE97F82F300CE07B6B04337B63A9
:101008003B6B01333B633A6B7B689A42DBD301F05D
:101018006DFE002318463837BD46B0BD80B487B092
:1010280000AFF860B9607A60FB687B6100233B61C0
:101038000CE07A693B699B00B9680B4412681A6036
:101048007B6904337B613B6901333B613A697B68A7
:101058009A42EED300BF00BF1C37BD465DF8047B43
:10106800704780B487B000AF7860396000237B6137
:1010780000233B612AE00023FB6021E00023BB60E2
:1010880018E07B694FF47A6202FB03F37A681A442A
:101098003B69591C39619B0039680B44F968642025
:1010A80001FB00F0B968014452F821201A60BB68BE
:1010B8000133BB60BB68632BE3DDFB680133FB6076
:1010C800FB68092BDADD7B6901337B617B69092BBE
:1010D800D1DD00BF00BF1C37BD465DF8047B7047FB
:1010E80080B487B000AF7860396000237B6100234B
:1010F8003B612AE00023FB6021E00023BB6018E08D
:101108003B695A1C3A619B007A681A447B694FF420
:101118007A6101FB03F339680B441168FA686420AB
:1011280002FB00F0BA68024443F82210BB6801339E
:10113800BB60BB68632BE3DDFB680133FB60FB68C6
:10114800092BDADD7B6901337B617B69092BD1DDF2
:1011580000BF00BF1C37BD465DF8047B7047000028
:10116800B0B588B000AF00F0B1FF00F0D5FB00F0DB
:10117800A3FD00F039FC00F089FC00F027FD0821F0
:101188009A4802F0A7FE0421994802F0A3FE012222
:101198001021984802F0A0F901222021954802F078
:1011A8009BF90023FB7714E000224FF4005192488A
:1011B80002F092F9642000F0FBFF01224FF4005185
:1011C8008D4802F089F9642000F0F2FFFB7F0133BB
:1011D800FB77FB7F092BE7D9012288498848FFF76D
:1011E8001DFF864B1B68002B0CD0864B0A221A70F9
:1011F80042F2107284498548FFF710FF84498248FB
:10120800FFF76EFF83498448FFF716FE834B844A35
:101218001A6000224FF40051774802F05DF97D4BC7
:10122800B3F90030002BEDDD01224FF40051724874
:1012380002F052F90023BB7732E17A4B00221A60A0
:10124800794B00221A70794B00221A80784B0022C1
:101258001A7000237B7707E07B7F764A002122F80B
:1012680013107B7F01337B777B7F082BF4D9002316
:101278007B8390E067496848FFF7DEFD654BB3F96B
:101288000030002BB8BF5B429BB21A46654B1B6807
:101298001344644A13605F4BB3F90030664A9342C3
:1012A800ACBF01230023DBB21A46644B1A70634BB0
:1012B8001A785D4B1B789A4209D0604B1A785A4BC2
:1012C8001A705A4B1B8801339AB2584B1A80584BE4
:1012D8001B781A464F4BB3F90010564B23F81210DF
:1012E80001237B7641E0524B1B787A7E9A421CD8C8
:1012F8007B7E013B524A52F823104D4B1B781A460D
:101308004C4B33F912301846494B1B781A467B7EF2
:10131800D31A484A32F9133003FB00F27B7E013BB3
:101328000A44474941F823201CE07B7E013B444A9C
:1013380052F823103E4B1B781A463E4B33F91230B5
:1013480018463B4B1B781A467B7ED31A0933394A19
:1013580032F9133003FB00F27B7E013B0A44384923
:1013680041F823207B7E01337B767B7E082BBAD91C
:101378002F4B1B785A1C334B83FB02135910D3177E
:10138800C91A0B46DB000B44D11ACAB2284B1A7093
:101398007B8B01337B837B8B9F2B7FF66BAF214B42
:1013A8001B68294AA2FB0323DA09164B1B781C4643
:1013B800BB7F104616494FF47A7204FB02F21344BD
:1013C80041F82300194B1A880E4B1B781C46BB7F2B
:1013D80010460F494FF47A7204FB02F21344643347
:1013E80041F8230000233B7654E000BFD4000020DE
:1013F8001C01002000000240000802409C49012016
:10140800000004089849012058AD00200400040891
:1014180078010020A04901208C000020D04901203B
:10142800A95F6358A4490120A8490120AA490120BD
:101438007601002064010020F9FDFFFF9949012091
:10144800AC490120398EE338CDCCCCCC3B7EA04AC8
:1014580052F823309F4A127815463A7E901CB97F7D
:101468009D4A82FB03429211DB17D21A9B4C6423DC
:1014780003FB00F04FF47A7305FB03F303440B44BA
:1014880044F823203B7E924A002142F823103B7EF9
:1014980001333B763B7E072BD8D9BB7F0133BB7723
:1014A800BB7F632B7FF6C9AE8A4B1B78092B1DD8EF
:1014B800884B1B780133DAB2864B1A70854B1B7840
:1014C8000A2B40F0FA81864B01221A6001228449D6
:1014D8008448FFF74DFD84498048FFF7C2FD42F27A
:1014E800107281498148FFF743FDE6E10023FB754F
:1014F80024E0FB7D4FF47A6202FB03F3774A13443E
:101508007B491846FFF7BCFCF0EE407A794BC3EDF7
:10151800007A784B93ED007A774BD3ED007AB4EEEE
:10152800E77AF1EE10FA06D5724B1B68724A13601F
:10153800724AFB7D1370FB7D0133FB75FB7D092B24
:10154800D7D96E4B1B78012B4DD8012201216C484D
:1015580001F0C2FF00220221694801F0BDFF00220C
:101568000421674801F0B8FF00220821644801F00F
:10157800B3FF01221021624801F0AEFF01222021B1
:101588005F4801F0A9FF5F4B49F640421A805E4B65
:1015980049F640421A8000233B6120E05B4BDB6B3D
:1015A800584A1288934206D1594B9B6B564A128867
:1015B800934200F07D813B694FF4FA6203FB02F22B
:1015C800524BDA633B694FF4FA6203FB02F2504B69
:1015D8009A63012000F0ECFD3B6901333B613B69F4
:1015E800142BDBDD69E1454B1B78032B00F292805D
:1015F80000220121424801F06FFF012202214048E8
:1016080001F06AFF002204213D4801F065FF002235
:1016180008213B4801F060FF01221021384801F001
:101628005BFF01222021364801F056FF374B00228C
:10163800DA63374B00229A6340F6B83000F0B8FD01
:10164800002210212E4801F047FF002220212C48BB
:1016580001F042FF642000F0ABFD2A4B47F2305204
:101668001A80294B47F230521A800023FB6013E09E
:10167800FB6840F2DC5203FB02F2244BDA63FB689E
:1016880040F2DC5203FB02F2214B9A63022000F085
:101698008FFDFB680133FB60FB68142BE8DD1B4BF7
:1016A8000022DA631A4B00229A6340F6B83000F041
:1016B8007FFD01221021124801F00EFF0122202196
:1016C8000F4801F009FF0D4B09221A70F5E000BF21
:1016D800AC490120984901206766666678010020B8
:1016E8009C4901200000040858AD002004000408AB
:1016F800B89D0020D4490120D0490120D8490120B3
:1017080000000240CC490120CE49012000000140E0
:10171800000400406B4B1B78052B4DD8002201219B
:10172800694801F0D9FE00220221674801F0D4FE81
:1017380001220421644801F0CFFE002208216248FA
:1017480001F0CAFE012210215F4801F0C5FE012206
:1017580020215D4801F0C0FE5C4B44F620621A80EF
:101768005B4B49F640421A800023BB6020E0594B8E
:10177800DB6B564A1288934206D1574B9B6B544AEF
:101788001288934200F09680BB684FF47A7203FB8C
:1017980002F2504BDA63BB684FF4FA6203FB02F2C1
:1017A8004D4B9A63012000F003FDBB680133BB6019
:1017B800BB68142BDBDD80E0424B1B78072B4CD831
:1017C80000220121404801F087FE002202213E4804
:1017D80001F082FE002204213B4801F07DFE012237
:1017E8000821394801F078FE01221021364801F01D
:1017F80073FE01222021344801F06EFE334B49F676
:1018080040421A80324B44F620621A8000237B60E3
:101818001FE0304BDB6B2D4A1288934205D12E4BCB
:101828009B6B2B4A1288934246D07B684FF4FA622E
:1018380003FB02F2274BDA637B684FF47A7203FBEF
:1018480002F2254B9A63012000F0B2FC7B68013359
:101858007B607B68132BDCDD2FE0002201211A4816
:1018680001F03AFE00220221174801F035FE00225D
:101878000421154801F030FE00220821124801F029
:101888002BFE01221021104801F026FE0122202102
:101898000D4801F021FE0F4B0022DA630E4B0022A7
:1018A8009A630A4B00221A80094B00221A8004E02E
:1018B80000BF02E000BF00E000BF4FF4FA7000F084
:1018C80077FC9FE4D849012000000240CC49012060
:1018D800CE490120000001400004004080B582B0DC
:1018E80000AF0346FB80FB88B3F5006F0AD1074BB6
:1018F80000221A70064B00221A600122044905488A
:10190800FFF736FB00BF0837BD4680BD9849012068
:101918009C4901200000040880B594B000AF07F18D
:10192800200330220021184603F0A6F807F10C0323
:1019380000221A605A609A60DA601A610023BB605C
:10194800274B1B6C264A43F080531364244B1B6CB3
:1019580003F08053BB60BB6800237B60214B1B688E
:10196800204A43F4404313601E4B1B6803F4404372
:101978007B607B6801233B624FF480337B620223E8
:10198800BB634FF48003FB630C233B6460237B64DD
:101998000223BB640423FB6407F12003184601F00B
:1019A800CDFD0346002B01D000F012FA0F23FB6097
:1019B80002233B6100237B614FF48053BB6100230A
:1019C800FB6107F10C030321184602F02FF80346C8
:1019D800002B01D000F0FCF900BF5037BD4680BD98
:1019E800003802400070004080B584B000AF3B462C
:1019F80000221A605A609A60DA60214B214A1A6004
:101A08001F4B4FF480325A601D4B00229A601C4BCA
:101A180000221A611A4B01221A76194B002283F808
:101A28002020174B0022DA62154B174A9A62144B92
:101A38000022DA60124B0122DA61114B002283F88E
:101A480030200F4B01225A610D4800F0D5FB0346A8
:101A5800002B01D000F0BCF909233B6001237B6017
:101A68000023BB603B461946054800F089FD034644
:101A7800002B01D000F0ACF900BF1037BD4680BD87
:101A88008C000020002001400100000F80B596B0B6
:101A980000AF07F1480300221A605A609A60DA60C2
:101AA80007F1400300221A605A6007F1240300225C
:101AB8001A605A609A60DA601A615A619A613B1D2D
:101AC80020220021184602F0D7FF3E4B3E4A1A60FA
:101AD8003C4B00225A603B4B00229A60394B4FF630
:101AE800FF72DA60374B00221A61364B00225A61C6
:101AF800344B80229A61334802F044F90346002BA4
:101B080001D000F065F94FF48053BB6407F1480336
:101B180019462C4802F050FB0346002B01D000F078
:101B280057F9284802F07DF90346002B01D000F050
:101B38004FF900233B6400237B6407F140031946F7
:101B4800204802F0D9FE0346002B01D000F040F9EE
:101B580060237B620023BB620023FB6200233B639C
:101B680000237B630023BB630023FB6307F124038B
:101B780008221946134802F05DFA0346002B01D0EB
:101B880000F026F900237B600023BB600023FB6084
:101B980000233B6100237B614FF40053BB610023AA
:101BA8003B623B1D1946074802F014FF0346002B11
:101BB80001D000F00DF9034800F0B4F900BF583720
:101BC800BD4680BDD40000200000014080B58EB025
:101BD80000AF07F1280300221A605A609A60DA60A1
:101BE80007F1200300221A605A603B1D00221A6088
:101BF8005A609A60DA601A615A619A612C4B2D4AD0
:101C08001A602B4B00225A60294B00229A60284BFD
:101C18004FF6FF72DA60264B00221A61244B00222D
:101C28009A61234802F0AEF80346002B01D000F079
:101C3800CFF84FF48053BB6207F1280319461C48BC
:101C480002F0BAFA0346002B01D000F0C1F8184898
:101C580002F0E7F80346002B01D000F0B9F80023A2
:101C68003B6200237B6207F120031946104802F00B
:101C780043FE0346002B01D000F0AAF860237B60E6
:101C88000023BB600023FB6000237B613B1D042213
:101C98001946074802F0CEF90346002B01D000F0A0
:101CA80097F8034800F03EF900BF3837BD4680BDBD
:101CB8001C0100200004004080B58AB000AF07F185
:101CC800140300221A605A609A60DA601A610023CD
:101CD8003B613C4B1B6B3B4A43F004031363394B9A
:101CE8001B6B03F004033B613B690023FB60354B2E
:101CF8001B6B344A43F080031363324B1B6B03F0B6
:101D08008003FB60FB680023BB602E4B1B6B2D4AD6
:101D180043F0010313632B4B1B6B03F00103BB6000
:101D2800BB6800237B60274B1B6B264A43F00203EA
:101D38001363244B1B6B03F002037B607B68002258
:101D48004FF40051204801F0C7FB00223F211F48F3
:101D580001F0C2FB4FF400537B610123BB610023F8
:101D6800FB6100233B6207F114031946164801F092
:101D78002FFA3F237B610123BB610023FB61002312
:101D88003B6207F114031946104801F021FA4FF499
:101D980000637B614FF40413BB610123FB6107F10E
:101DA80014031946094801F013FA002200212820DB
:101DB80000F0EFFE282000F008FF00BF2837BD46DE
:101DC80080BD00BF00380240000802400000024009
:101DD80080B400AF72B600BF00BFFDE780B483B027
:101DE80000AF00237B60104B5B6C0F4A43F48043C9
:101DF80053640D4B5B6C03F480437B607B6800236A
:101E08003B60094B1B6C084A43F080531364064B34
:101E18001B6C03F080533B603B6800BF0C37BD462A
:101E28005DF8047B704700BF0038024080B58AB077
:101E380000AF786007F1140300221A605A609A60B4
:101E4800DA601A617B681B68174A934227D100231E
:101E58003B61164B5B6C154A43F480735364134B18
:101E68005B6C03F480733B613B690023FB600F4BA1
:101E78001B6B0E4A43F0020313630C4B1B6B03F0FE
:101E88000203FB60FB6802237B610323BB61002321
:101E9800FB6107F114031946054801F099F900BFE1
:101EA8002837BD4680BD00BF0020014000380240F1
:101EB8000004024080B485B000AF78607B681B687E
:101EC800154A93420ED10023FB60144B5B6C134AF6
:101ED80043F001035364114B5B6C03F00103FB6097
:101EE800FB6812E07B681B680D4A93420DD1002302
:101EF800BB600A4B1B6C094A43F002031364074B8F
:101F08001B6C03F00203BB60BB6800BF1437BD46FF
:101F18005DF8047B704700BF0000014000380240B4
:101F28000004004080B58AB000AF786007F1140360
:101F380000221A605A609A60DA601A617B681B682E
:101F4800244A93421FD100233B61234B1B6B224A37
:101F580043F001031363204B1B6B03F001033B6148
:101F68003B694FF480637B610223BB610023FB6103
:101F780000233B6201237B6207F1140319461748CB
:101F880001F026F922E07B681B68154A93421DD1AF
:101F98000023FB60104B1B6B0F4A43F001031363D4
:101FA8000D4B1B6B03F00103FB60FB6880237B6117
:101FB8000223BB610023FB6100233B6202237B6297
:101FC80007F114031946054801F002F900BF283744
:101FD800BD4680BD000001400038024000000240BC
:101FE8000004004080B400AF00BFFDE780B400AF3C
:101FF80000BFFDE780B400AF00BFFDE780B400AFCD
:1020080000BFFDE780B400AF00BFFDE780B400AFBC
:1020180000BFBD465DF8047B704780B400AF00BFC9
:10202800BD465DF8047B704780B400AF00BFBD4675
:102038005DF8047B704780B500AF00F099F800BFE9
:1020480080BD80B500AF4FF4006001F05FFA00BFBB
:1020580080BD000080B400AF064BD3F88830054A35
:1020680043F47003C2F8883000BFBD465DF8047BB6
:10207800704700BF00ED00E0DFF834D0FFF7EAFF5B
:102088000C480D490D4A002302E0D458C4500433CB
:10209800C4188C42F9D30A4A0A4C002301E01360A1
:1020A8000432A242FBD302F0F5FCFFF759F870475F
:1020B800000002200000002070000020605A000884
:1020C80070000020384B0120FEE7000080B500AF0B
:1020D8000E4B1B680D4A43F4007313600B4B1B68CF
:1020E8000A4A43F480631360084B1B68074A43F4A9
:1020F80080731360032000F041FD0F2000F008F802
:10210800FFF76CFE0023184680BD00BF003C02406C
:1021180080B582B000AF7860124B1A68124B1B78FA
:1021280019464FF47A73B3FBF1F3B2FBF3F3184695
:1021380000F059FD0346002B01D001230EE07B6817
:102148000F2B0AD8002279684FF0FF3000F021FDEC
:10215800064A7B681360002300E00123184608370D
:10216800BD4680BD000000200800002004000020BB
:1021780080B400AF064B1B781A46064B1B68134405
:10218800044A136000BFBD465DF8047B704700BF7A
:1021980008000020DC49012080B400AF034B1B6815
:1021A8001846BD465DF8047B704700BFDC49012036
:1021B80080B584B000AF7860FFF7EEFFB8607B6849
:1021C800FB60FB68B3F1FF3F05D00A4B1B781A464A
:1021D800FB681344FB6000BFFFF7DEFF0246BB68E5
:1021E800D31AFA689A42F7D800BF00BF1037BD4625
:1021F80080BD00BF0800002080B584B000AF7860C3
:102208000023FB737B68002B01D1012333E07B683B
:102218001B6C002B09D17868FFF708FE7B68002249
:102228005A647B68002283F83C207B681B6C03F0AF
:102238001003002B18D17B681B6C23F4885323F000
:10224800020343F002027B681A64786800F0CAFA55
:102258007B6800225A647B681B6C23F0030343F0FD
:1022680001027B681A6401E00123FB737B6800228A
:1022780083F83C20FB7B18461037BD4680BD000024
:1022880080B485B000AF78600023BB607B6893F8AA
:102298003C30012B01D1022397E07B68012283F8AF
:1022A8003C207B681B689B6803F00103012B18D056
:1022B8007B681B689A687B681B6842F001029A6019
:1022C800454B1B68454AA2FB03239A0C13465B0047
:1022D8001344BB6002E0BB68013BBB60BB68002BDA
:1022E800F9D17B681B689B6803F00103012B5FD160
:1022F8007B681B6C23F4E06323F0010343F48072D2
:102308007B681A647B681B685B6803F48063002B36
:1023180007D07B681B6C23F4405343F480527B68DE
:102328001A647B681B6C03F48053B3F5805F06D195
:102338007B685B6C23F006027B685A6402E07B686A
:1023480000225A647B68002283F83C20244BFB60FF
:102358007B681B686FF022021A60FB685B6803F0F9
:102368001F03002B0FD17B681B689B6803F0405349
:10237800002B29D17B681B689A687B681B6842F030
:1023880080429A6020E07B681B68164A93421BD102
:102398007B681B689B6803F04053002B14D17B6853
:1023A8001B689A687B681B6842F080429A600BE061
:1023B8007B681B6C43F010027B681A647B685B6C5B
:1023C80043F001027B685A64002318461437BD465F
:1023D8005DF8047B704700BF0000002083DE1B43CC
:1023E800002301400020014080B483B000AF786032
:1023F8007B6893F83C30012B01D1022321E07B68F4
:10240800012283F83C207B681B689A687B681B68FC
:1024180022F001029A607B681B689B6803F0010345
:10242800002B09D17B681B6C23F4885323F001032C
:1024380043F001027B681A647B68002283F83C2021
:10244800002318460C37BD465DF8047B704780B5FD
:1024580084B000AF786039600023FB607B681B683C
:102468009B6803F48063B3F5806F13D17B681B68A6
:102478009B6803F48073B3F5807F0BD17B681B6C7A
:1024880043F020027B681A647B68002283F83C20B2
:10249800012363E0FFF780FEF86021E03B68B3F1B9
:1024A800FF3F1DD03B68002B07D0FFF775FE0246A3
:1024B800FB68D31A3A689A4212D27B681B681B6879
:1024C80003F00203022B0BD07B681B6C43F0040261
:1024D8007B681A647B68002283F83C2003233DE074
:1024E8007B681B681B6803F00203022BD6D17B684C
:1024F8001B686FF012021A607B681B6C43F4007251
:102508007B681A647B681B689B6803F04053002B48
:1025180023D17B681B7E002B1FD17B681B68DB6A7D
:1025280003F47003002B06D07B681B689B6803F4D8
:102538008063002B11D17B681B6C23F480727B684D
:102548001A647B681B6C03F48053002B05D17B68ED
:102558001B6C43F001027B681A640023184610378D
:10256800BD4680BD80B483B000AF78607B681B68CF
:10257800DB6C18460C37BD465DF8047B70470000DD
:1025880080B485B000AF786039600023BB607B6899
:1025980093F83C30012B01D1022313E17B6801221F
:1025A80083F83C203B681B68092B25D97B681B688E
:1025B800D9683B681B689BB21A4613465B001344F4
:1025C8001E3B072202FA03F3DA437B681B680A40C2
:1025D800DA607B681B68D9683B689A683B681B6847
:1025E8009BB2184603465B0003441E3B9A407B6837
:1025F8001B680A43DA6022E07B681B6819693B683C
:102608001B689BB21A4613465B001344072202FA62
:1026180003F3DA437B681B680A401A617B681B680E
:1026280019693B689A683B681B689BB21846034661
:102638005B0003449A407B681B680A431A613B6845
:102648005B68062B24D87B681B68596B3B685A6803
:1026580013469B001344053B1F2202FA03F3DA4397
:102668007B681B680A405A637B681B68596B3B6828
:102678001B689BB218463B685A6813469B00134474
:10268800053B00FA03F27B681B680A435A634CE077
:102698003B685B680C2B24D87B681B68196B3B680C
:1026A8005A6813469B001344233B1F2202FA03F384
:1026B800DA437B681B680A401A637B681B68196BDE
:1026C8003B681B689BB218463B685A6813469B00D8
:1026D8001344233B00FA03F27B681B680A431A631E
:1026E80023E07B681B68D96A3B685A6813469B00DD
:1026F8001344413B1F2202FA03F3DA437B681B6849
:102708000A40DA627B681B68D96A3B681B689BB21F
:1027180018463B685A6813469B001344413B00FA2D
:1027280003F27B681B680A43DA62294BFB607B680B
:102738001B68284A93420FD13B681B68122B0BD1A8
:10274800FB685B6823F40002FB685A60FB685B68FF
:1027580043F48002FB685A607B681B681D4A9342F9
:102768002BD13B681B681C4A934203D03B681B680B
:10277800112B22D1FB685B6823F48002FB685A6046
:10278800FB685B6843F40002FB685A603B681B689F
:10279800114A934211D1114B1B68114AA2FB032322
:1027A8009A0C13469B0013445B00BB6002E0BB68B5
:1027B800013BBB60BB68002BF9D17B68002283F822
:1027C8003C20002318461437BD465DF8047B70474B
:1027D80000230140002001401200001000000020EA
:1027E80083DE1B4380B485B000AF7860794BFB6013
:1027F800FB685B6823F44032FB685A60FB685A68E0
:102808007B685B681A43FB685A607B681B685A6878
:102818007B681B6822F480725A607B681B68596861
:102828007B681B691A027B681B680A435A607B68CD
:102838001B685A687B681B6822F040725A607B6884
:102848001B6859687B689A687B681B680A435A60EA
:102858007B681B689A687B681B6822F400629A6030
:102868007B681B6899687B68DA687B681B680A4321
:102878009A607B689B6A584A934222D07B681B689F
:102888009A687B681B6822F070629A607B681B6894
:1028980099687B689A6A7B681B680A439A607B68B8
:1028A8001B689A687B681B6822F040529A607B68B4
:1028B8001B6899687B68DA6A7B681B680A439A60B8
:1028C8000FE07B681B689A687B681B6822F070625F
:1028D8009A607B681B689A687B681B6822F0405284
:1028E8009A607B681B689A687B681B6822F0020202
:1028F8009A607B681B6899687B681B7E5A007B68B6
:102908001B680A439A607B6893F82030002B1BD021
:102918007B681B685A687B681B6842F400625A60CF
:102928007B681B685A687B681B6822F460425A609F
:102938007B681B6859687B685B6A013B5A037B6844
:102948001B680A435A6007E07B681B685A687B6803
:102958001B6822F400625A607B681B68DA6A7B682D
:102968001B6822F47002DA627B681B68D96A7B688C
:10297800DB69013B1A057B681B680A43DA627B68DE
:102988001B689A687B681B6822F400729A607B68EF
:102998001B6899687B6893F830305A027B681B681B
:1029A8000A439A607B681B689A687B681B6822F4F4
:1029B80080629A607B681B6899687B685B699A0289
:1029C8007B681B680A439A6000BF1437BD465DF8F0
:1029D800047B7047002301400100000F80B485B0DC
:1029E80000AF78607B6803F00703FB600C4BDB6883
:1029F800BB60BA684FF6FF031340BB60FB681A025E
:102A0800BB68134343F0BF6343F40033BB60044A1D
:102A1800BB68D36000BF1437BD465DF8047B7047C0
:102A280000ED00E080B400AF044BDB681B0A03F044
:102A380007031846BD465DF8047B704700ED00E0CB
:102A480080B483B000AF0346FB7197F90730002BC1
:102A58000BDBFB7903F01F02074997F907305B0985
:102A6800012000FA02F241F8232000BF0C37BD46CE
:102A78005DF8047B704700BF00E100E080B483B0DC
:102A880000AF03463960FB7197F90730002B0ADB6A
:102A98003B68DAB20C4997F907301201D2B20B44FD
:102AA80083F800230AE03B68DAB20849FB7903F0AF
:102AB8000F03043B1201D2B20B441A7600BF0C3745
:102AC800BD465DF8047B704700E100E000ED00E0E2
:102AD80080B489B000AFF860B9607A60FB6803F031
:102AE8000703FB61FB69C3F10703042B28BF042319
:102AF800BB61FB690433062B02D9FB69033B00E089
:102B080000237B614FF0FF32BB6902FA03F3DA431B
:102B1800BB681A407B699A404FF0FF317B6901FA24
:102B280003F3D9437B680B40134318462437BD464B
:102B38005DF8047B7047000080B582B000AF786014
:102B48007B68013BB3F1807F01D301230FE00A4A80
:102B58007B68013B53600F214FF0FF30FFF78EFF7A
:102B6800054B00229A60044B07221A60002318467E
:102B78000837BD4680BD00BF10E000E080B582B0D8
:102B880000AF78607868FFF729FF00BF0837BD46B7
:102B980080BD80B586B000AF0346B9607A60FB732C
:102BA80000237B61FFF73EFF78617A68B96878692E
:102BB800FFF78EFF024697F90F3011461846FFF7C8
:102BC8005DFF00BF1837BD4680BD80B582B000AF3D
:102BD8000346FB7197F907301846FFF731FF00BF2E
:102BE8000837BD4680BD80B582B000AF7860786890
:102BF800FFF7A2FF034618460837BD4680BD000010
:102C080080B586B000AFF860B960C7E9002301233A
:102C1800FB75234B1B7E012B01D102233BE0204B8C
:102C280001221A764CF2503000F070F80346FB751A
:102C3800FB7D002B2BD1FB68002B05D13B78194677
:102C4800B86800F01BF916E0FB68012B05D13B883A
:102C58001946B86800F0EEF80DE0FB68022B05D1C4
:102C68003B681946B86800F0C3F804E0D7E90023C8
:102C7800B86800F08BF84CF2503000F047F8034683
:102C8800FB75084B1B69074A23F001031361044BCA
:102C980000221A76FB7D18461837BD4680BD00BF56
:102CA800E0490120003C024080B483B000AF00231B
:102CB800FB710B4B1B69002B0BDA094B094A5A6055
:102CC800074B094A5A60064B1B69002B01DA01239E
:102CD800FB71FB7918460C37BD465DF8047B7047DD
:102CE800003C024023016745AB89EFCD80B400AFBB
:102CF800054B1B69044A43F000431361002318463F
:102D0800BD465DF8047B7047003C024080B584B046
:102D180000AF78600023FB601A4B0022DA61FFF7EE
:102D28003BFAF86010E07B68B3F1FF3F0CD07B689A
:102D3800002B07D0FFF730FA0246FB68D31A7A68EF
:102D48009A4201D2032319E00F4BDB6803F4803366
:102D5800002BE8D10C4BDB6803F00103002B02D0F9
:102D6800094B0122DA60084BDB6803F4F973002B86
:102D780003D000F0A5F8012300E00023184610371F
:102D8800BD4680BDE0490120003C024080B485B0CA
:102D980000AFF860C7E90023144B1B69134A23F4FA
:102DA80040731361114B1B69104A43F4407313615C
:102DB8000E4B1B690D4A43F001031361FB683A6827
:102DC8001A60BFF36F8F00BFD7E900014FF0000210
:102DD8004FF000030A000023F968043113460B6022
:102DE80000BF1437BD465DF8047B7047003C0240C5
:102DF80080B483B000AF786039600D4B1B690C4A12
:102E080023F4407313610A4B1B69094A43F40073A6
:102E18001361074B1B69064A43F0010313617B6882
:102E28003A681A6000BF0C37BD465DF8047B7047EE
:102E3800003C024080B483B000AF78600B467B80D2
:102E48000D4B1B690C4A23F4407313610A4B1B6931
:102E5800094A43F480731361074B1B69064A43F020
:102E6800010313617B687A881A8000BF0C37BD465E
:102E78005DF8047B704700BF003C024080B483B01B
:102E880000AF78600B46FB700C4B1B690B4A23F4B0
:102E980040731361094B094A1B691361074B1B698E
:102EA800064A43F0010313617B68FA781A7000BF81
:102EB8000C37BD465DF8047B704700BF003C0240FC
:102EC80080B400AF2F4BDB6803F01003002B08D051
:102ED8002D4BDB6943F010032B4AD361294B102299
:102EE800DA60284BDB6803F02003002B08D0264B60
:102EF800DB6943F00803244AD361224B2022DA60BD
:102F0800204BDB6803F04003002B08D01E4BDB6925
:102F180043F004031C4AD3611A4B4022DA60194B70
:102F2800DB6803F08003002B08D0174BDB6943F004
:102F38000203154AD361134B8022DA60114BDB6818
:102F480003F48073002B09D00F4BDB6943F00103B6
:102F58000D4AD3610B4B4FF48072DA60094BDB6882
:102F680003F00203002B08D0074BDB6943F0200372
:102F7800054AD361034B0222DA6000BFBD465DF803
:102F8800047B7047003C0240E049012080B584B0D2
:102F980000AF786039600123FB730023BB60314BBD
:102FA8001B7E012B01D1022358E02E4B01221A76F9
:102FB8004CF25030FFF7AAFE0346FB73FB7B002B55
:102FC80048D13B684FF0FF321A607B681B68012BC1
:102FD80015D17B681B69DAB27B685B6819461046B5
:102FE80000F044F84CF25030FFF790FE0346FB73B4
:102FF8001D4B1B691C4A23F00403136128E07B68FE
:103008009B68BB601CE07B681B69DBB21946B8682B
:1030180000F050F84CF25030FFF778FE0346FB738F
:10302800114B1B69104A23F0FA031361FB7B002B39
:1030380003D03B68BA681A600AE0BB680133BB601A
:103048007B68DA687B689B681344BA689A42DAD36B
:1030580000F078F8034B00221A76FB7B18461037ED
:10306800BD4680BDE0490120003C024080B483B0E9
:1030780000AF03463960FB710D4B1B690C4A23F402
:10308800407313610A4B1B69094A43F00403136137
:10309800074B1A69FB791B021343054A43F4803333
:1030A800136100BF0C37BD465DF8047B704700BF55
:1030B800003C024080B485B000AF78600B46FB70DE
:1030C8000023FB60FB78002B02D10023FB6010E09B
:1030D800FB78012B03D14FF48073FB6009E0FB7888
:1030E800022B03D14FF40073FB6002E04FF44073EE
:1030F800FB60134B1B69124A23F440731361104B96
:103108001A690F49FB6813430B610D4B1B690C4A85
:1031180023F0F80313610A4B1A697B68DB00134339
:10312800074A43F002031361054B1B69044A43F441
:103138008033136100BF1437BD465DF8047B7047C8
:10314800003C024080B400AF204B1B6803F40073BE
:10315800002B17D01D4B1B681C4A23F40073136007
:103168001A4B1B68194A43F400631360174B1B681A
:10317800164A23F400631360144B1B68134A43F484
:1031880000731360114B1B6803F48063002B17D086
:103198000E4B1B680D4A23F4806313600B4B1B68AE
:1031A8000A4A43F480531360084B1B68074A23F408
:1031B80080531360054B1B68044A43F48063136013
:1031C80000BFBD465DF8047B704700BF003C02406D
:1031D80080B489B000AF7860396000237B61002338
:1031E8003B610023BB610023FB6159E10122FB69BC
:1031F80002FA03F37B613B681B687A6913403B6101
:103208003A697B699A4240F048813B685B6803F001
:103218000303012B05D03B685B6803F00303022B13
:1032280030D17B689B68BB61FB695B00032202FAB3
:1032380003F3DB43BA691340BB613B68DA68FB6997
:103248005B0002FA03F3BA691343BB617B68BA698E
:103258009A607B685B68BB610122FB6902FA03F331
:10326800DB43BA691340BB613B685B681B0903F029
:103278000102FB6902FA03F3BA691343BB617B6875
:10328800BA695A603B685B6803F00303032B17D0E5
:103298007B68DB68BB61FB695B00032202FA03F30E
:1032A800DB43BA691340BB613B689A68FB695B0002
:1032B80002FA03F3BA691343BB617B68BA69DA603F
:1032C8003B685B6803F00303022B23D1FB69DA0830
:1032D8007B68083253F82230BB61FB6903F00703AF
:1032E8009B000F2202FA03F3DB43BA691340BB6168
:1032F8003B681A69FB6903F007039B0002FA03F3B2
:10330800BA691343BB61FB69DA087B680832B9699B
:1033180043F822107B681B68BB61FB695B000322D2
:1033280002FA03F3DB43BA691340BB613B685B688D
:1033380003F00302FB695B0002FA03F3BA69134363
:10334800BB617B68BA691A603B685B6803F4403309
:10335800002B00F0A2800023FB60574B5B6C564AA1
:1033680043F480435364544B5B6C03F48043FB6029
:10337800FB68524AFB699B08023352F82330BB6151
:10338800FB6903F003039B000F2202FA03F3DB43FC
:10339800BA691340BB617B68494A934219D07B687C
:1033A800484A934213D07B68474A93420DD07B68C2
:1033B800464A934207D07B68454A934201D1042389
:1033C80008E0072306E0032304E0022302E00123C8
:1033D80000E00023FA6902F0030292009340BA6900
:1033E8001343BB613549FB699B080233BA6941F84D
:1033F8002320384B9B68BB613B69DB43BA691340A8
:10340800BB613B685B6803F48013002B03D0BA6987
:103418003B691343BB612F4ABB6993602D4BDB6843
:10342800BB613B69DB43BA691340BB613B685B68BE
:1034380003F40013002B03D0BA693B691343BB6143
:10344800244ABB69D360234B5B68BB613B69DB43A0
:10345800BA691340BB613B685B6803F40033002B17
:1034680003D0BA693B691343BB611A4ABB6953600D
:10347800184B1B68BB613B69DB43BA691340BB61EE
:103488003B685B6803F48033002B03D0BA693B695F
:103498001343BB610F4ABB691360FB690133FB61CE
:1034A800FB690F2B7FF6A2AE00BF00BF2437BD46D5
:1034B8005DF8047B704700BF0038024000380140C7
:1034C800000002400004024000080240000C0240D4
:1034D80000100240003C014080B483B000AF786027
:1034E8000B467B8013467B707B78002B03D07A8851
:1034F8007B689A6103E07B881A047B689A6100BF45
:103508000C37BD465DF8047B7047000080B582B07B
:1035180000AF0346FB80084B5A69FB881340002B19
:1035280006D0054AFB885361FB881846FEF7D6F992
:1035380000BF0837BD4680BD003C014080B586B05D
:1035480000AF78607B68002B01D1012367E27B68BC
:103558001B6803F00103002B75D0884B9B6803F0B0
:103568000C03042B0CD0854B9B6803F00C03082B31
:1035780012D1824B5B6803F48003B3F5800F0BD143
:103588007E4B1B6803F40033002B5BD07B685B68C1
:10359800002B57D1012342E27B685B68B3F5803F7B
:1035A80006D1764B1B68754A43F4803313601DE0DF
:1035B8007B685B68B3F5A02F0CD1704B1B686F4A12
:1035C80043F4802313606D4B1B686C4A43F48033CB
:1035D80013600BE0694B1B68684A23F4803313605F
:1035E800664B1B68654A23F4802313607B685B681D
:1035F800002B13D0FEF7D0FD386108E0FEF7CCFDB4
:1036080002463B69D31A642B01D9032307E25B4BBB
:103618001B6803F40033002BF0D014E0FEF7BCFD68
:10362800386108E0FEF7B8FD02463B69D31A642BFF
:1036380001D90323F3E1514B1B6803F40033002B3A
:10364800F0D100E000BF7B681B6803F00203002B89
:1036580063D04A4B9B6803F00C03002B0BD0474BFD
:103668009B6803F00C03082B1CD1444B5B6803F4E4
:103678008003002B16D1414B1B6803F00203002B7B
:1036880005D07B68DB68012B01D00123C7E13B4BE8
:103698001B6823F0F8027B681B69DB00374913437A
:1036A8000B603AE07B68DB68002B20D0344B0122AA
:1036B8001A60FEF771FD386108E0FEF76DFD0246FD
:1036C8003B69D31A022B01D90323A8E12B4B1B68B2
:1036D80003F00203002BF0D0284B1B6823F0F802FC
:1036E8007B681B69DB00254913430B6015E0244BFD
:1036F80000221A60FEF750FD386108E0FEF74CFD25
:1037080002463B69D31A022B01D9032387E11B4BDD
:103718001B6803F00203002BF0D17B681B6803F0E1
:103728000803002B36D07B685B69002B16D0154B3D
:1037380001221A60FEF730FD386108E0FEF72CFD23
:1037480002463B69D31A022B01D9032367E10B4BCD
:103758005B6F03F00203002BF0D01BE0094B002243
:103768001A60FEF719FD38610EE0FEF715FD0246F6
:103778003B69D31A022B07D9032350E100380240D2
:1037880000004742800E4742884B5B6F03F00203FC
:10379800002BEAD17B681B6803F00403002B00F0C0
:1037A80097800023FB75814B1B6C03F08053002B23
:1037B8000FD10023BB607D4B1B6C7C4A43F08053C8
:1037C80013647A4B1B6C03F08053BB60BB68012306
:1037D800FB75774B1B6803F48073002B18D1744B6F
:1037E8001B68734A43F480731360FEF7D5FC386195
:1037F80008E0FEF7D1FC02463B69D31A022B01D937
:1038080003230CE16A4B1B6803F48073002BF0D090
:103818007B689B68012B06D1644B1B6F634A43F09E
:10382800010313671CE07B689B68052B0CD15F4B79
:103838001B6F5E4A43F0040313675C4B1B6F5B4AC4
:1038480043F0010313670BE0584B1B6F574A23F0F3
:1038580001031367554B1B6F544A23F00403136786
:103868007B689B68002B15D0FEF796FC38610AE050
:10387800FEF792FC02463B69D31A41F28832934222
:1038880001D90323CBE0494B1B6F03F00203002B44
:10389800EED014E0FEF780FC38610AE0FEF77CFC0D
:1038A80002463B69D31A41F28832934201D9032375
:1038B800B5E03E4B1B6F03F00203002BEED1FB7DFE
:1038C800012B05D1394B1B6C384A23F08053136404
:1038D8007B689B69002B00F0A180344B9B6803F048
:1038E8000C03082B5CD07B689B69022B41D1314BC0
:1038F80000221A60FEF750FC386108E0FEF74CFC25
:1039080002463B69D31A022B01D9032387E0274BD0
:103918001B6803F00073002BF0D17B68DA697B68C1
:103928001B6A1A437B685B6A9B011A437B689B6A24
:103938005B08013B1B041A437B68DB6A1B061B49B7
:1039480013434B601B4B01221A60FEF725FC3861BC
:1039580008E0FEF721FC02463B69D31A022B01D985
:1039680003235CE0114B1B6803F00073002BF0D0BD
:1039780054E0104B00221A60FEF70EFC386108E094
:10398800FEF70AFC02463B69D31A022B01D903232E
:1039980045E0064B1B6803F00073002BF0D13DE0B7
:1039A8007B689B69012B07D1012338E0003802406E
:1039B80000700040600047421B4B5B68FB607B68FF
:1039C8009B69012B28D0FB6803F480027B68DB69C4
:1039D8009A4221D1FB6803F03F027B681B6A9A4236
:1039E8001AD1FA6847F6C07313407A68526A92018E
:1039F800934211D1FB6803F440327B689B6A5B08F1
:103A0800013B1B049A4207D1FB6803F070627B6894
:103A1800DB6A1B069A4201D0012300E00023184606
:103A28001837BD4680BD00BF0038024080B584B05D
:103A380000AF786039607B68002B01D10123CCE0AE
:103A4800684B1B6803F007033A689A420CD9654B28
:103A58003A68D2B21A70634B1B6803F007033A68DE
:103A68009A4201D00123B8E07B681B6803F0020387
:103A7800002B20D07B681B6803F00403002B05D0C3
:103A8800594B9B68584A43F4E05393607B681B6822
:103A980003F00803002B05D0534B9B68524A43F4AC
:103AA80060439360504B9B6823F0F0027B689B68EF
:103AB8004D4913438B607B681B6803F00103002B9F
:103AC80044D07B685B68012B07D1474B1B6803F424
:103AD8000033002B19D101237FE07B685B68022B40
:103AE80003D07B685B68032B07D13F4B1B6803F04F
:103AF8000073002B09D101236FE03B4B1B6803F0D7
:103B08000203002B01D1012367E0374B9B6823F0A8
:103B180003027B685B68344913438B60FEF73CFB08
:103B2800F8600AE0FEF738FB0246FB68D31A41F258
:103B38008832934201D903234FE02B4B9B6803F053
:103B48000C027B685B689B009A42EBD1254B1B6893
:103B580003F007033A689A420CD2224B3A68D2B271
:103B68001A70204B1B6803F007033A689A4201D089
:103B7800012332E07B681B6803F00403002B08D0A4
:103B8800194B9B6823F4E0527B68DB6816491343A2
:103B98008B607B681B6803F00803002B09D0124B6D
:103BA8009B6823F460427B681B69DB000E49134362
:103BB8008B6000F021F802460B4B9B681B0903F051
:103BC8000F030A49CB5C22FA03F3094A1360094B35
:103BD8001B681846FEF79CFA002318461037BD46A6
:103BE80080BD00BF003C024000380240105A000867
:103BF80000000020040000202DE9B04F90B000AF75
:103C080000237B630023FB6300233B630023BB6328
:103C1800594B9B6803F00C03082B0DD0082B00F2BE
:103C2800A180002B02D0042B03D09BE0534BBB6335
:103C38009BE0534BBB6398E04F4B5B6803F03F033B
:103C48007B634D4B5B6803F48003002B28D04A4B01
:103C58005B689B0900223B627A623B6AC3F30800F7
:103C68000021474B03FB01F2002300FB03F313443D
:103C7800434AA0FB0212FA620A46BA62FA6A13447D
:103C8800FB627B6B0022BB61FA61D7E90623D7E9A7
:103C98000A01FCF759FF02460B461346FB6353E043
:103CA800354B5B689B0900223B617A613B69C3F332
:103CB800080A4FF0000B52465B464FF000004FF0E9
:103CC8000001590141EAD261500102460B46B2EBAC
:103CD8000A0863EB0B094FF000024FF000034FEAAC
:103CE800891343EA98634FEA8812B2EB080463EB3E
:103CF80009054FF000024FF00003EB0043EA54734C
:103D0800E20014461D4614EB0A033B6045EB0B0327
:103D18007B604FF000024FF00003D7E900452946C9
:103D28008B02214643EA915321468A0210461946DE
:103D38007B6B0022BB60FA60D7E90223FCF704FF23
:103D480002460B461346FB630B4B5B681B0C03F0E8
:103D5800030301335B003B63FA6B3B6BB2FBF3F38A
:103D6800BB6302E0054BBB6300BFBB6B1846403723
:103D7800BD46BDE8B08F00BF003802400024F40003
:103D880040787D0180B582B000AF78607B68002BF9
:103D980001D1012341E07B6893F83D30DBB2002B71
:103DA80006D17B68002283F83C207868FEF782F809
:103DB8007B68022283F83D207B681A687B6804339D
:103DC8001946104600F0C0FA7B68012283F84620A5
:103DD8007B68012283F83E207B68012283F83F201C
:103DE8007B68012283F840207B68012283F8412008
:103DF8007B68012283F842207B68012283F84320F4
:103E08007B68012283F844207B68012283F84520DF
:103E18007B68012283F83D20002318460837BD46F9
:103E280080BD80B582B000AF78607B68002B01D17F
:103E3800012341E07B6893F83D30DBB2002B06D1CB
:103E48007B68002283F83C20786800F039F87B68AA
:103E5800022283F83D207B681A687B680433194680
:103E6800104600F071FA7B68012283F846207B68CF
:103E7800012283F83E207B68012283F83F207B687B
:103E8800012283F840207B68012283F841207B6867
:103E9800012283F842207B68012283F843207B6853
:103EA800012283F844207B68012283F845207B683F
:103EB800012283F83D20002318460837BD4680BDFF
:103EC80080B483B000AF786000BF0C37BD465DF8A2
:103ED800047B704780B584B000AF786039603B6878
:103EE800002B09D17B6893F83E30DBB2012B14BF5D
:103EF80001230023DBB222E03B68042B09D17B6855
:103F080093F83F30DBB2012B14BF01230023DBB24F
:103F180015E03B68082B09D17B6893F84030DBB289
:103F2800012B14BF01230023DBB208E07B6893F860
:103F38004130DBB2012B14BF01230023DBB2002B7D
:103F480001D0012368E03B68002B04D17B68022282
:103F580083F83E2013E03B68042B04D17B680222DF
:103F680083F83F200BE03B68082B04D17B680222D2
:103F780083F8402003E07B68022283F841207B68B5
:103F88001B6801223968184600F090FC7B681B68A2
:103F9800234A934207D17B681B685A6C7B681B686D
:103FA80042F400425A647B681B681D4A934218D049
:103FB8007B681B68B3F1804F13D07B681B68194A74
:103FC80093420ED07B681B68174A934209D07B68DE
:103FD8001B68164A934204D07B681B68144A9342B4
:103FE80011D17B681B689B6803F00703FB60FB68C3
:103FF800062B10D07B681B681A687B681B6842F028
:1040080001021A6007E07B681B681A687B681B68F6
:1040180042F001021A60002318461037BD4680BDE1
:10402800000001400004004000080040000C00406F
:104038000040014080B586B000AFF860B9607A6092
:104048000023FB75FB6893F83C30012B01D1022358
:10405800AEE0FB68012283F83C207B680C2B00F261
:104068009F8001A252F823F0A5400008A94100084A
:10407800A9410008A9410008E5400008A941000835
:10408800A9410008A941000827410008A9410008E2
:10409800A9410008A941000867410008FB681B689E
:1040A800B968184600F0DCF9FB681B689A69FB6878
:1040B8001B6842F008029A61FB681B689A69FB68F2
:1040C8001B6822F004029A61FB681B689969BB6847
:1040D8001A69FB681B680A439A6164E0FB681B68FD
:1040E800B968184600F022FAFB681B689A69FB68F1
:1040F8001B6842F400629A61FB681B689A69FB6856
:104108001B6822F480629A61FB681B689969BB6826
:104118001B691A02FB681B680A439A6143E0FB6843
:104128001B68B968184600F06DFAFB681B68DA6905
:10413800FB681B6842F00802DA61FB681B68DA69F1
:10414800FB681B6822F00402DA61FB681B68D96906
:10415800BB681A69FB681B680A43DA6123E0FB68DD
:104168001B68B968184600F0B7FAFB681B68DA697B
:10417800FB681B6842F40062DA61FB681B68DA6955
:10418800FB681B6822F48062DA61FB681B68D969E6
:10419800BB681B691A02FB681B680A43DA6102E004
:1041A8000123FB7500BFFB68002283F83C20FB7DE0
:1041B80018461837BD4680BD80B584B000AF78601A
:1041C80039600023FB737B6893F83C30012B01D1E5
:1041D8000223B4E07B68012283F83C207B6802223A
:1041E80083F83D207B681B689B68BB60BB6823F035
:1041F8007703BB60BB6823F47F43BB607B681B68A5
:10420800BA689A603B681B68B3F5005F3ED0B3F5A7
:10421800005F00F28780B3F5805F00F08680B3F519
:10422800805F7FD8702B1AD0702B7BD8602B50D032
:10423800602B77D8502B3CD0502B73D8402B58D0BC
:10424800402B6FD8302B64D0302B6BD8202B60D00C
:10425800202B67D8002B5CD0102B5AD062E07B68EB
:1042680018683B6899683B685A683B68DB6800F0E7
:10427800FDFA7B681B689B68BB60BB6843F07703EB
:10428800BB607B681B68BA689A604FE07B681868F7
:104298003B6899683B685A683B68DB6800F0E6FA57
:1042A8007B681B689A687B681B6842F480429A6046
:1042B8003CE07B6818683B6859683B68DB681A46CD
:1042C80000F05AFA7B681B685021184600F0B3FAD0
:1042D8002CE07B6818683B6859683B68DB681A46BD
:1042E80000F079FA7B681B686021184600F0A3FA91
:1042F8001CE07B6818683B6859683B68DB681A46AD
:1043080000F03AFA7B681B684021184600F093FADF
:104318000CE07B681A683B681B681946104600F079
:104328008AFA03E00123FB7300E000BF7B680122E7
:1043380083F83D207B68002283F83C20FB7B1846ED
:104348001037BD4680BD000080B485B000AF7860EE
:1043580039607B681B68FB607B683A4A93420FD0E0
:104368007B68B3F1804F0BD07B68374A934207D004
:104378007B68364A934203D07B68354A934208D11A
:10438800FB6823F07003FB603B685B68FA681343C3
:10439800FB607B682B4A93421BD07B68B3F1804F4C
:1043A80017D07B68284A934213D07B68274A9342E8
:1043B8000FD07B68264A93420BD07B68254A9342EC
:1043C80007D07B68244A934203D07B68234A9342F0
:1043D80008D1FB6823F44073FB603B68DB68FA682C
:1043E8001343FB60FB6823F080023B685B6913435F
:1043F800FB607B68FA681A603B689A687B68DA62D7
:104408003B681A687B689A627B680E4A934203D1BC
:104418003B681A697B681A637B6801225A617B686A
:104428001B6903F00103012B05D17B681B6923F08D
:1044380001027B681A6100BF1437BD465DF8047B32
:10444800704700BF00000140000400400008004021
:10445800000C004000400140004401400048014079
:1044680080B487B000AF786039607B681B6A7B6175
:104478007B681B6A23F001027B681A627B685B68B1
:104488003B617B689B69FB60FB6823F07003FB6002
:10449800FB6823F00303FB603B681B68FA6813435F
:1044A800FB607B6923F002037B613B689B687A6948
:1044B80013437B617B681C4A93420CD17B6923F0D0
:1044C80008037B613B68DB687A6913437B617B691E
:1044D80023F004037B617B68134A934211D13B6943
:1044E80023F480733B613B6923F400733B613B68B1
:1044F8005B693A6913433B613B689B693A691343BB
:104508003B617B683A695A607B68FA689A613B68E4
:104518005A687B685A637B687A691A6200BF1C37DD
:10452800BD465DF8047B70470000014080B487B049
:1045380000AF786039607B681B6A7B617B681B6AA7
:1045480023F010027B681A627B685B683B617B68BA
:104558009B69FB60FB6823F4E043FB60FB6823F482
:104568004073FB603B681B681B02FA681343FB60DF
:104578007B6923F020037B613B689B681B017A6998
:1045880013437B617B681E4A93420DD17B6923F0FC
:1045980080037B613B68DB681B017A6913437B619D
:1045A8007B6923F040037B617B68154A934213D1F2
:1045B8003B6923F480633B613B6923F400633B61FF
:1045C8003B685B699B003A6913433B613B689B69A5
:1045D8009B003A6913433B617B683A695A607B6880
:1045E800FA689A613B685A687B689A637B687A695B
:1045F8001A6200BF1C37BD465DF8047B704700BFD8
:104608000000014080B487B000AF786039607B68F3
:104618001B6A7B617B681B6A23F480727B681A6261
:104628007B685B683B617B68DB69FB60FB6823F048
:104638007003FB60FB6823F00303FB603B681B68A7
:10464800FA681343FB607B6923F400737B613B6862
:104658009B681B027A6913437B617B681D4A9342FE
:104668000DD17B6923F400637B613B68DB681B0227
:104678007A6913437B617B6923F480637B617B6880
:10468800144A934213D13B6923F480533B613B693D
:1046980023F400533B613B685B691B013A69134390
:1046A8003B613B689B691B013A6913433B617B682B
:1046B8003A695A607B68FA68DA613B685A687B68CD
:1046C800DA637B687A691A6200BF1C37BD465DF8F9
:1046D800047B70470000014080B487B000AF786069
:1046E80039607B681B6A3B617B681B6A23F48052D4
:1046F8007B681A627B685B687B617B68DB69FB604F
:10470800FB6823F4E043FB60FB6823F44073FB6021
:104718003B681B681B02FA681343FB603B6923F480
:1047280000533B613B689B681B033A6913433B6139
:104738007B68104A934209D17B6923F480437B61EB
:104748003B685B699B017A6913437B617B687A6983
:104758005A607B68FA68DA613B685A687B681A6451
:104768007B683A691A6200BF1C37BD465DF8047B56
:10477800704700BF0000014080B487B000AFF86008
:10478800B9607A60FB681B6A7B61FB681B6A23F06F
:104798000102FB681A62FB689B693B613B6923F075
:1047A800F0033B617B681B013A6913433B617B69FA
:1047B80023F00A037B617A69BB6813437B61FB685A
:1047C8003A699A61FB687A691A6200BF1C37BD466C
:1047D8005DF8047B704780B487B000AFF860B960BB
:1047E8007A60FB681B6A7B61FB681B6A23F0100216
:1047F800FB681A62FB689B693B613B6923F4704361
:104808003B617B681B033A6913433B617B6923F077
:10481800A0037B61BB681B017A6913437B61FB685A
:104828003A699A61FB687A691A6200BF1C37BD460B
:104838005DF8047B704780B485B000AF786039605C
:104848007B689B68FB60FB6823F07003FB603A6839
:10485800FB68134343F00703FB607B68FA689A60C0
:1048680000BF1437BD465DF8047B704780B487B03D
:1048780000AFF860B9607A603B60FB689B687B6159
:104888007B6923F47F437B613B681A027B681A4388
:10489800BB6813437A6913437B61FB687A699A6042
:1048A80000BF1C37BD465DF8047B704780B487B0F5
:1048B80000AFF860B9607A60BB6803F01F0301229B
:1048C80002FA03F37B61FB681A6A7B69DB431A40CF
:1048D800FB681A62FB681A6ABB6803F01F037968F1
:1048E80001FA03F31A43FB681A6200BF1C37BD467E
:1048F8005DF8047B7047000080B485B000AF786035
:1049080039607B6893F83C30012B01D1022350E0D9
:104918007B68012283F83C207B68022283F83D20D3
:104928007B681B685B68FB607B681B689B68BB6077
:10493800FB6823F07003FB603B681B68FA6813434D
:10494800FB607B681B68FA685A607B681B681C4AB6
:10495800934218D07B681B68B3F1804F13D07B68F3
:104968001B68184A93420ED07B681B68164A93420C
:1049780009D07B681B68154A934204D07B681B6882
:10498800134A93420CD1BB6823F08003BB603B6899
:104998005B68BA681343BB607B681B68BA689A6037
:1049A8007B68012283F83D207B68002283F83C2045
:1049B800002318461437BD465DF8047B704700BFD6
:1049C800000001400004004000080040000C0040C6
:1049D8000040014080B485B000AF786039600023A2
:1049E800FB607B6893F83C30012B01D102233DE04A
:1049F8007B68012283F83C20FB6823F0FF023B68B8
:104A0800DB681343FB60FB6823F440723B689B68D8
:104A18001343FB60FB6823F480623B685B681343C5
:104A2800FB60FB6823F400623B681B681343FB6070
:104A3800FB6823F480523B681B691343FB60FB68E7
:104A480023F400523B685B691343FB60FB6823F463
:104A580080423B68DB691343FB607B681B68FA682C
:104A68005A647B68002283F83C20002318461437D8
:104A7800BD465DF8047B704702440346934200D16B
:104A8800704703F8011BF9E7014B1868704700BF2E
:104A98000C00002070B50D4D0D4C641BA4100026B1
:104AA800A64209D10B4D0C4C00F0A2FF641BA410C8
:104AB8000026A64205D170BD55F8043B984701363B
:104AC800EEE755F8043B98470136F2E7585A0008D4
:104AD800585A0008585A00085C5A0008F8B52DEDD5
:104AE800028BB0EE408AF0EE608A55EC114B00F074
:104AF80077F922462B462046294657EC106BFBF7E0
:104B0800BDFF00283BD151EC180B00220023FBF716
:104B180083FFB8B10022002320462946FBF77CFF1B
:104B2800002846D145EC104B00F074F838B3002249
:104B3800002320462946FBF779FF00B3FFF7A4FFBF
:104B480022231BE047EC106B00F064F8E0B9B0EEEC
:104B5800480AF0EE680A00F05DF8A8B145EC104B81
:104B680000F058F880B132463B4630463946FBF7EC
:104B780085FF0028E2D0FFF787FF21230360BDEC03
:104B8800028B47EC106BF8BD0022002330463946F3
:104B9800FBF742FF0028F2D0B0EE480AF0EE680AB0
:104BA80000F038F80028EAD045EC104B00F032F855
:104BB800C3E7014F0026E2E70000F03F38B52DEDCE
:104BC800028B55EC104B00F031F822462B4620465C
:104BD8002946B0EE408AF0EE608AFBF74FFF90B9A5
:104BE8000022002320462946FBF720FF58B1FFF793
:104BF8004BFF212303600022002310461946FBF7D0
:104C0800CDFD41EC180BB0EE480AF0EE680ABDEC99
:104C1800028B38BD82B08DED000B019840F000404A
:104C280000F58010C00F02B0704700002DE9F84F62
:104C3800684A55EC104BAA432B46214610D1224610
:104C480020462946FBF780FC02460B4620462946AB
:104C5800FBF7C4FA04460D4645EC104BBDE8F88F47
:104C6800002D0EDC25F000422243F5D09DB12246EE
:104C780020462946FBF7B0FA02460B46FBF78EFDA5
:104C8800E8E72A1515D1002009E0CB0A153A4905AD
:104C9800002BFAD0F7E72A46FAE75B000130DC027E
:104CA800FBD5441E121BC0F1200421FA04F423434F
:104CB8008140C3F31303A2F2FF3543F48013D207F4
:104CC8005CBF5B0003EBD1734FEA430358BF490055
:104CD800002603EBD1736D104900162032464FF4BD
:104CE800001417199F42DEBF3A19DB1B3619CF0F84
:104CF800013807EB43034FEA41014FEA5404F0D16E
:104D0800044620274FF0004C9A4200EB0C0E02DBC1
:104D180013D18E4511D8BEF1000F0EEB0C0042DA0C
:104D2800002840DB02F101089B1A8E4588BF03F179
:104D3800FF33A1EB0E01644442464FEAD17E013FA6
:104D48000EEB43034FEA41014FEA5C0CDCD11943F7
:104D58001BD0DFF884A0DFF884B0DAE90001DBE9D2
:104D68000023FBF739FADAE9008902460B46404688
:104D78004946FBF765FE40B1B4F1FF3FDAE90001AF
:104D8800DBE9002311D101363C4672106308F107B4
:104D980002F17F5202F5001248BF43F0004302EBD4
:104DA8000551184656E79046BEE7FBF717FADAE9C9
:104DB800008902460B4640464946FBF737FE20B1BC
:104DC800A01C08BF01360234DFE7631C23F001048E
:104DD800DBE700BF0000F07F6800002060000020D3
:104DE8002DE9F04F91B08DED001BDDE9001929F098
:104DF800004A5AEA010057EC106B13D1B31987F433
:104E0800002252419842984B934180F0EA84DDE9B0
:104E1800002330463946FBF7E1F941EC100B11B09D
:104E2800BDE8F08F914A27F0004890453D4633464B
:104E380006D801D1002EEAD1924501D80ED169B128
:104E480005F1404505F580151D43E0D1DDE9003247
:104E5800DB1882F4002252419D42D4E7002DC3465C
:104E68003ADA834A92454DD8A2F15472924540F2FB
:104E7800C7844FEA2A52A2F2FF32142A0FDDC2F188
:104E8800340221FA02F404FA02F28A4240F0B884A9
:104E980004F00104C4F10204002958D10EE00029ED
:104EA80054D1C2F114024AFA02F404FA02F2524549
:104EB80040F0A38404F00104C4F102046D4A924551
:104EC8002ED1B9F1000F80F294846A4932463B46EC
:104ED8000020FBF763FCA0E70024C1BB634A9245AE
:104EE800ECD108F1404202F580121A4300F07984AF
:104EF800614B984508D9B9F1000FC0F27684DDE915
:104F080000018AE70224E8E7B9F1000F4FF000003A
:104F18004FF0000181DADDE9000303F100417CE78D
:104F2800B9F1804F06D132463B4630463946FBF749
:104F38000BFB72E7514A914509D1002D07DB47EC7D
:104F4800106B11B0BDE8F04FFFF770BE002447ECBE
:104F5800106B029300F088FC029B51EC100B53BBC2
:104F6800444B25F040429A4202D0B8F1000F22D1BA
:104F7800B9F1000F05DA02460B4600203D49FBF760
:104F88000DFC002DBFF649AF08F1404808F5801820
:104F980058EA040808D102460B4610461946FBF7A2
:104FA8001BF902460B4694E7012C7FF436AF01F15A
:104FB8000043194631E7EB0F013B53EA040202D1E3
:104FC80032463B46E9E7013C1C4316D09FED227B65
:104FD800BAF1844F8DED027B40F21281284B9A453D
:104FE800254B16D998450BD8B9F1000F0BDA0020DC
:104FF80011B0BDE8F04F00F0F3BC9FED197BE7E777
:10500800B9F1000FF3DC002011B0BDE8F04F00F05B
:10501800DFBC98450CD2DDE9020100220023FBF732
:1050280005FD003818BF0120B9F1000FECDADFE701
:10503800104B98454FF0000224D9DDE90201002306
:10504800FBF7F4FC003818BF0120B9F1000FCFDCE2
:10505800DAE700BFAFF30080000000000000F03F77
:10506800000000000000F0BF0000F0FF0000F07F2B
:10507800FFFF3F430000F03FFFFFEF3F0000E03F2E
:105088000000F0435A4BFBF7A7F851A3D3E90023DC
:1050980004460D46FBF758FA4FA3D3E9002306460A
:1050A8000F4620462946FBF74FFA524B82468B465D
:1050B800002220462946FBF747FA02460B4648A13C
:1050C800D1E90001FBF788F822462B46FBF73CFAAA
:1050D80002460B4600204849FBF77EF822468046E8
:1050E80089462B4620462946FBF72EFA02460B46F0
:1050F80040464946FBF728FA3BA3D3E90023FBF7D0
:1051080023FA02460B4650465946FBF765F8024615
:105118000B468046894630463946FBF75FF800243F
:1051280032463B4620460D46FBF756F802460B46EC
:1051380040464946FBF750F8DDE90023CDE9042352
:1051480000230493DDE904AB06460F4652465B464E
:10515800DDE90001FBF740F822462B46FBF7F4F99E
:10516800DDE900238046894630463946FBF7ECF9ED
:1051780002460B4640464946FBF730F852465B4626
:1051880006460F4620462946FBF7DEF90B4602463F
:105198008046894630463946FBF720F8174B994236
:1051A80004460D468A468B4640F3EF8201F13F43A1
:1051B80003F5E003034300F0E881DDE90201002282
:1051C8000023FBF733FC003818BF012010E700BFAD
:1051D800000000604715F73F44DF5DF80BAE543E12
:1051E800555555555555D53FFE822B654715F73F03
:1051F8000000F03F0000D03F0000E03FFFFF8F407D
:10520800D54B2B4000222BB9D44BFBF79DF96FF0FF
:1052180034028B464FEA2B53A3F2FF3313440A930D
:10522800CF4BCBF3130B4BF07F559B4545F4401503
:1052380008DDCC4B9B4540F3A5810A9B01330A93BB
:10524800A5F580154FF0000A4FEACA030B93C64B29
:1052580003EBCA0393ED007B294653EC172B8DED26
:10526800067BCDE90801FAF7B7FFDDE90823064612
:105278000F46DDE90601FAF7B1FF02460B460020AA
:10528800BA49FBF78BFACDE90C0102460B463046CA
:105298003946FBF759F9CDE90401DDE904BC6D1085
:1052A80045F000554FF0000B05F50025614600223A
:1052B80005EB8A435846E146CDE90EBC14461D4627
:1052C800FBF742F902460B4630463946FAF784FFA7
:1052D800DDE9062306460F4620462946FAF77CFFF5
:1052E80002460B46DDE90801FAF776FF5A464B46B7
:1052F800FBF72AF902460B4630463946FAF76CFFA7
:10530800DDE90C23FBF720F9DDE90423CDE90601EB
:1053180010461946FBF718F97DA3D3E90023044684
:105328000D46FBF711F97CA3D3E90023FAF756FFE2
:1053380022462B46FBF708F979A3D3E90023FAF7AD
:105348004DFF22462B46FBF7FFF877A3D3E900234E
:10535800FAF744FF22462B46FBF7F6F874A3D3E985
:105368000023FAF73BFF22462B46FBF7EDF872A322
:10537800D3E90023FAF732FF224606460F462B46AA
:1053880020462946FBF7E0F802460B4630463946E8
:10539800FBF7DAF85A4604460D464B46DDE90401A8
:1053A800FAF71CFFDDE90623FBF7CEF822462B4669
:1053B800FAF714FF5A46CDE908014B4658464946C4
:1053C800FBF7C2F86A4B002206460F46FAF706FFBB
:1053D800DDE90823FAF702FFD846DDE90EBC0D46E1
:1053E8005A460B4640464946CDE90CBCFBF7ACF89B
:1053F8005C46804689465E4B002220462946FAF7DD
:10540800EBFE32463B46FAF7E7FE02460B46DDE97D
:105418000801FAF7E1FEDDE90423FBF795F82246D7
:1054280006460F462B46DDE90601FBF78DF80246D6
:105438000B4630463946FAF7D1FE06460F46024675
:105448000B4640464946FAF7C9FEDDE90CBC3CA3C9
:10545800D3E900235846CDE908BC0D46FBF774F89C
:105468005C46CDE9040142464B4620462946FAF7F8
:10547800B3FE02460B4630463946FAF7ADFE32A374
:10548800D3E90023FBF760F831A3D3E900230646EC
:105498000F4620462946FBF757F802460B4630468A
:1054A8003946FAF79BFE0B9A324B1344D3E9002393
:1054B800FAF794FECDE906010A98FAF7DBFF0B9A92
:1054C8002D4B1344D3E900890646DDE906230F4630
:1054D800DDE90401FAF782FE42464B46FAF77EFE02
:1054E80032463B46FAF77AFEDDE908BC32463B46CF
:1054F80058460D46FAF770FE42464B46FAF76CFEE0
:10550800DDE90423FAF768FE5C46024636E000BF90
:10551800EF4E454A287ECA3F65DBC9934A86CD3F90
:1055280001411DA96074D13F4D268F515555D53F76
:10553800FFAB6FDBB66DDB3F033333333333E33F0E
:10554800000000E009C7EE3FFD033ADC09C7EE3F63
:10555800F5015B14E02F3EBE0000F07F00004043E1
:105568008E98030079B60B00405A00080000F03FFF
:1055780000000840205A0008305A00080B46DDE9B0
:105588000601D7E54FF0010A5EE6B4A3D3E900238C
:1055980030463946FAF722FE4246CDE900014B462D
:1055A80020462946FAF718FE02460B46DDE90001B7
:1055B800FBF75AFA00287FF400AE4FEA2A5A4FF454
:1055C8008013AAF2FE3A43FA0AFADA44CAF30A51F5
:1055D8009D48A1F2FF31084100EA0A03CAF3130A01
:1055E800C1F114014AF4801A4AFA01FABBF1000F1A
:1055F800404649464FF00002B8BFCAF1000AFAF720
:10560800EBFD8046894632463B4640464946FAF716
:10561800E5FD00247CA3D3E9002320460D46FAF7D4
:1056280093FF4246CDE900014B4620462946FAF74A
:10563800D3FD02460B4630463946FAF7CDFD74A332
:10564800D3E90023FAF780FF73A3D3E90023804648
:10565800894620462946FAF777FF02460B46404618
:105668004946FAF7BBFD04460D4602460B46DDE9FE
:105678000001FAF7B3FDDDE9002380468946FAF711
:10568800ABFD02460B4620462946FAF7A5FD4246E1
:1056980006460F464B4640464946FAF755FF60A373
:1056A800D3E9002304460D46FAF74EFF5EA3D3E97B
:1056B8000023FAF791FD22462B46FAF745FF5CA333
:1056C800D3E90023FAF78AFD22462B46FAF73CFF76
:1056D80059A3D3E90023FAF77FFD22462B46FAF7B0
:1056E80033FF57A3D3E90023FAF778FD22462B4668
:1056F800FAF72AFF02460B4640464946FAF76CFD80
:1057080004460D4602460B4640464946FAF71CFF3A
:105718000022CDE900014FF0804320462946FAF7E0
:105728005BFD02460B46DDE90001FBF737F8324620
:1057380004460D463B4640464946FAF705FF3246C1
:105748003B46FAF74BFD02460B4620462946FAF738
:1057580043FD42464B46FAF73FFD0B4602463B499E
:105768000020FAF739FD41EC100B10EE903A03EBEC
:105778000A53B3F5801F30DA504600F07DF851EC3B
:10578800100BDDE90223FFF7D2BB314C21F00043B7
:10579800A3421AD92F4B0B44034309D0DDE9020178
:1057A80000220023FBF742F9003818BF01202BE440
:1057B80042464B46FAF710FD32463B46FBF74AF99C
:1057C8000028EBD1DFF89CA0F7E69A46224B9A45D1
:1057D8003FF6F3AEDDF810A015E751EC100B1946B3
:1057E800CFE71A490020FFF718BB00200021FFF778
:1057F80014BB30463946FFF710BB0C46FFF75EBBBB
:105808000024FFF749BB00BF00000000432EE63F1D
:10581800EF39FAFE422EE63F396CA80C615C20BED7
:10582800D0A4BE726937663EF16BD2C541BDBB3E9E
:105838002CDE25AF6A56113F93BDBE166CC1663F7C
:105848003E5555555555C53F0000F0FF0000F03F47
:10585800FFCB904000346F3F0000E03FFE822B6595
:105868004715973C00CC904051EC100B024621F0B4
:10587800004343EC102B704770B555EC104BC5F343
:105888000A5106462B4691B925F0004323433DD0E3
:10589800354B204629460022FAF756FE334B9E42E6
:1058A80004460D460FDA28A3D3E900231EE040F290
:1058B800FF7291420BD1224620462946FAF78EFC08
:1058C80004460D4622E00B46C1F30A5136394CF224
:1058D800503296420DDD002D1DA1D1E9000102DAFA
:1058E8001DA1D1E900011AA3D3E90023FAF72CFE80
:1058F800E6E7721840F2FE718A42ECDC002A08DD05
:1059080023F0FF4323F4E00343EA025545EC104B30
:1059180070BD12F1350F08DA002D0BA1D1E9000195
:10592800C1DA0FA1D1E90001BDE723F0FF43363208
:1059380023F4E00343EA025520460D4B2946002292
:10594800D4E700BFAFF3008059F3F8C21F6EA5017A
:105958009C7500883CE4377E9C7500883CE437FEE3
:1059680059F3F8C21F6EA58100005043B03CFFFFF9
:105978000000903C10B52DED028BB0EE408AF0EEA1
:10598800608A0446FFF780F8B0EE480AF0EE680A2D
:10599800BDEC028B046010BD034607B551EC100B3B
:1059A80083B1024601F10043CDE90023DDE900237C
:1059B800FAF7CAFD41EC100B222003B05DF804EBA6
:1059C800FFF7D8BF02460B46EEE7000000000000D4
:1059D8009FED010BFFF7E0BF000000000000001082
:1059E8009FED010BFFF7D8BF00000000000000701A
:1059F800F8B500BFF8BC08BC9E467047F8B500BFB4
:085A0800F8BC08BC9E46704783
:105A1000000000000000000001020304060708095E
:105A2000000000000000000006D0CF43EBFD4C3E1C
:105A300000000000000000000000004003B8E23F4A
:105A4000000000000000F03F000000000000F83FF0
:085A500030B1FF7F01000000EE
:045A5800BD01000884
:045A5C0099010008A4
:105A60000024F400100000000100000010000020DD
:105A700000000000004A0120684A0120D04A0120AD
:105A80000000000000000000000000000000000016
:105A90000000000000000000000000000000000006
:105AA00000000000000000000000000000000000F6
:105AB00000000000000000000000000000000000E6
:105AC00059F3F8C21F6EA501000000000000F03F6E
